:100000000C9436000C944B000C944B000C944B0059
:100010000C944B000C944B000C944B000C944B0034
:100020000C944B000C944B000C944B000C944B0024
:100030000C944B000C944B000C944B000C944B0014
:100040000C944B000C944B000C944B000C944B0004
:100050000C944B000C944B000C944B000C944B00F4
:100060000C944B000C944B000C944B0011241FBEBD
:10007000CFEFD4E0DEBFCDBF11E0A0E0B1E0E2ED14
:10008000F5E002C005900D92A031B107D9F70E94AA
:1000900023010C94E7020C9400005E9A00C05E9865
:1000A0000895CF93DF93D82F662311F05C9A01C097
:1000B0005C985D988AB18F608AB9CBB1C07F8D2F73
:1000C00082958F708C2B8BB90E944D00DF70DC2BDA
:1000D000DBB90E944D00CF60CBB9DF91CF9108957D
:1000E000882311F05C9A01C05C985D9A8AB1807F88
:1000F0008AB95E9A00C029B15E9800C05E9A00C0BD
:1001000099B12295207F892F8F705E98822B089558
:1001100080E00E9470008823DCF388E090E0019783
:10012000F1F780E00E9470000895CF93C82F0E94DD
:10013000880060E08C2F0E945100CF9108956111DA
:1001400004C080580E949500089580540E94950034
:10015000089581E00E9495000895CF93C82F0E94D2
:100160008800CA3049F4803410F080E001C080E497
:1001700080580E94950004C061E08C2F0E945100BD
:10018000CF910895CF93DF93EC012196FC018081FC
:10019000882329F00E94AD0089918111FBCFDF9166
:1001A000CF9108951F93CF93DF93182F9AB19F6734
:1001B0009AB9E0E0FAEF3197F1F7599A589A0E940C
:1001C0004D00E0E0FEE43197F1F70E944D00C0E001
:1001D000D1E0FE013197F1F70E944D00FE01319709
:1001E000F1F758980E944D002197F1F788E20E949C
:1001F000950088E00E9495000E94A90086E00E9478
:100200009500812F0E949500DF91CF911F91089555
:1002100080E480937C0080E880937A000895ECE786
:10022000F0E090818770987F892B8083EAE7F0E087
:10023000808180648083808186FDFDCF80917800FD
:10024000909179000895CF93DF93CDB7DEB72A97C9
:100250000FB6F894DEBF0FBECDBF0E9408018EE03E
:100260000E94D2000E94A90060E080E00E949F00EE
:100270008FE19EE40197F1F700C0000080E00E944A
:100280000F018C0160E080E00E949F00B80180E0D7
:1002900090E00E94AC0120E030E040E85DE30E9485
:1002A00012020E947601DC01CB014AE050E0BE015F
:1002B0006F5F7F4F0E94A70280E091E00E94C20022
:1002C000CE0101960E94C2008DE091E00E94C20022
:1002D0008DE091E00E94C2009FEF20E782E0915004
:1002E00020408040E1F700C00000C8CF0E947D019F
:1002F0006894B1110C940C0208950E94F10188F0E9
:100300009F5798F0B92F9927B751B0F0E1F0660FD9
:10031000771F881F991F1AF0BA95C9F714C0B1301A
:1003200091F00E940B02B1E008950C940B02672F2C
:10033000782F8827B85F39F0B93FCCF38695779549
:100340006795B395D9F73EF4909580957095619532
:100350007F4F8F4F9F4F0895E89409C097FB3EF45D
:1003600090958095709561957F4F8F4F9F4F992302
:10037000A9F0F92F96E9BB279395F6958795779580
:100380006795B795F111F8CFFAF4BB0F11F460FF40
:100390001BC06F5F7F4F8F4F9F4F16C0882311F098
:1003A00096E911C0772321F09EE8872F762F05C0AC
:1003B000662371F096E8862F70E060E02AF09A9547
:1003C000660F771F881FDAF7880F9695879597F93C
:1003D000089557FD9058440F551F59F05F3F71F035
:1003E0004795880F97FB991F61F09F3F79F087959C
:1003F0000895121613061406551FF2CF4695F1DF25
:1004000008C0161617061806991FF1CF86957105B4
:10041000610508940895E894BB2766277727CB01E8
:1004200097F908950E9425020C9496020E94880272
:1004300038F00E948F0220F0952311F00C947F0277
:100440000C94850211240C940C020E94E90170F3B3
:10045000959FC1F3950F50E0551F629FF001729F69
:10046000BB27F00DB11D639FAA27F00DB11DAA1F78
:10047000649F6627B00DA11D661F829F2227B00DC5
:10048000A11D621F739FB00DA11D621F839FA00D50
:10049000611D221F749F3327A00D611D231F849FA0
:1004A000600D211D822F762F6A2F11249F575040F7
:1004B0009AF0F1F088234AF0EE0FFF1FBB1F661F72
:1004C000771F881F91505040A9F79E3F510580F03B
:1004D0000C947F020C940C025F3FE4F3983ED4F33B
:1004E000869577956795B795F795E7959F5FC1F7DF
:1004F000FE2B880F911D9695879597F9089597F98A
:100500009F6780E870E060E008959FEF80EC0895B9
:1005100000240A94161617061806090608950024E2
:100520000A9412161306140605060895092E03945C
:10053000000C11F4882352F0BB0F40F4BF2B11F4D0
:1005400060FF04C06F5F7F4F8F4F9F4F089545320C
:10055000510520F4423010F00C94B202FB011082DD
:10056000CB010895BB274A3031F4992322F4BDE230
:10057000909581959F4F0C94BE02BB27FB01552798
:10058000AA27880F991FAA1FA41710F0A41B8395F0
:100590005051B9F7A05DAA3308F0A95DA193009767
:1005A00079F7B111B1931192CB010C94D702DC0110
:1005B000FC01672F71917723E1F7329704C07C919A
:1005C0006D9370836291AE17BF07C8F30895F894D6
:0205D000FFCF5B
:1005D20054656D70657261747572653D002000002E
:00000001FF
